S01500004E414E4F726573706F6E6465722E7372656311
S11300000C9434000C9451000C9451000C94510045
S11300100C9451000C9451000C9451000C94510018
S11300200C9451000C9451000C9451000C94510008
S11300300C9451000C9451000C9451000C945100F8
S11300400C9451000C9451000C9426020C94510011
S11300500C9451000C9451000C9451000C945100D8
S11300600C9451000C94510011241FBECFEFD8E022
S1130070DEBFCDBF11E0A0E0B1E0E4EBF4E002C0EC
S113008005900D92A430B107D9F721E0A4E0B1E0C6
S113009001C01D92A435B207E1F70E9455010C94EA
S11300A058020C94000080E1E2E2F1E0DF011D92CD
S11300B08A95E9F710920B0110920A011092090136
S11300C0109208018EE0E2E3F1E0DF011D928A95CF
S11300D0E9F7089520910A0130910B0180910801FC
S11300E0909109012817390799F0F901EE5DFE4F47
S11300F080812F5F3F4F203131052CF430930B0169
S113010020930A01089510920B0110920A01089598
S113011080E00895FC0184E280838DE481838091F2
S11301200601909107010197A1F483E4828384E49A
S11301308383A0E0B1E08C91848311968C91119714
S1130140858312968C911297868313968C9187835C
S113015009C08FE482838BE4838380E38483858373
S11301608683878383E280878AE08187CF0108952D
S1130170CF93DF9382E391E00E948A002A9AF89455
S1130180A2E3B1E080E090E0ED0146EC50E00AC06B
S11301902D91FA012083EFE1FEE43197F1F700C0DD
S11301A000000196FE0101900020E9F73197E25327
S11301B0F1408E179F0760F32A987894DF91CF91CE
S11301C0089582E085B98FE19EE40197F1F700C0BC
S11301D000004A9B03C015B88AE208954B9B03C0F4
S11301E015B887E308954C9B03C015B884E30895BC
S11301F04D9B03C015B881E3089581E085B98FE173
S11302009EE40197F1F700C000004A9B03C015B8B3
S113021080E308954B9B03C015B888E308954C9B75
S113022003C015B885E308954D9B03C015B882E358
S1130230089515B880E88BB98FE19EE40197F1F732
S113024000C000004A9B03C01BB883E208954B9B87
S113025003C01BB889E308954C9B03C01BB886E315
S113026008954D9B03C01BB883E3089580E48BB9C4
S11302708FE19EE40197F1F700C000004A9B03C0A0
S11302801BB884E408954B9B03C01BB883E4089512
S11302904C9B03C01BB882E408954D9B03C01BB85C
S11302A081E408951BB886E408955F926F927F926B
S11302B08F929F92AF92BF92CF92DF92EF92FF9272
S11302C00F931F93CF93DF931092C50080E1809327
S11302D0C40088ED8093C10086E08093C20084E06E
S11302E084B981E084B978940E945300C6E4AA24B6
S11302F0A394B12C66246394512C02E311E00F2ED5
S1130300FEE0CF2EF1E0DF2EF02D0F2EFCE0EF2EDD
S1130310F1E0FF2EF02D01C0C72D0E94E100782EE0
S1130320C817A9F18FEB870D823018F126E47216F5
S113033001F1962D8AE27812952D862DA3E27A1288
S1130340852D892B09F070C0962D8DEB870D823099
S113035008F0952D911168C080911E0190911F01A4
S1130360FC01E05BFE4F7082019690931F01809325
S11303701E0180911E0190911F01049741F4109277
S11303801F0110921E01B0920701A09206010E9463
S11303906A008A3009F0C0CF62E271E080E191E046
S11303A00E945102C2E2D1E00F2EF2E18F2EF1E061
S11303B09F2EF02D8991843271F588818E3489F5D0
S11303C0D4018C91D6018C93D40111968C91D601D1
S11303D011968C93D40112968C91D7018C93D401ED
S11303E013968C91D70111968C938981813441F4B1
S11303F08A818134B1F4B0920501A092040109C04C
S1130400853579F48A81833561F41092050110925F
S113041004010E94B800BFEF8B1A9B0AC017D107D2
S113042049F60E94530078CF80E090E0DF91CF91AD
S11304301F910F91FF90EF90DF90CF90BF90AF90FE
S11304409F908F907F906F905F9008951F920F926E
S11304500FB60F9211242F938F939F93EF93FF93D3
S113046080910801909109012091C600FC01EE5D84
S1130470FE4F20830196803191052CF4909309015D
S11304808093080104C01092090110920801FF91A1
S1130490EF919F918F912F910F900FBE0F901F900E
S11304A01895FB01DC0101900D920020E1F70895FD
S10704B0F894FFCFEA
S10704B40102030436
S9030000FC
