S01600007374757572456E4F6E7476616E672E737265633B
S113000071C000008EC000008CC000008AC00000D7
S113001088C0000086C0000084C0000082C00000C8
S113002080C000007EC000007CC000007AC00000D8
S113003078C0000076C0000074C0000072C00000E8
S113004070C000006EC000006CC000006AC00000F8
S113005068C0000066C0000064C0000062C0000008
S113006060C0000095C100005CC000005AC00000E0
S113007058C0000056C0000054C0000052C0000028
S113008050C000004EC000004CC000004AC0000038
S113009048C0000046C0000044C0000042C0000048
S11300A040C000003EC000003CC000003AC0000058
S11300B038C0000036C0000034C0000032C0000068
S11300C030C000002EC000002CC000002AC0000078
S11300D028C0000026C0000024C0000022C0000088
S11300E020C0000011241FBECFEFD1E2DEBFCDBF80
S11300F000E00CBF12E0A0E0B2E0E2EFF3E000E0C9
S11301000BBF02C007900D92AA36B107D9F722E0BF
S1130110AAE6B2E001C01D92AC3EB207E1F714D1E9
S113012066C16ECFCF93DF93EC0180E0E0ECF0E0AA
S113013046EC50E00AC0908195FFFDCFDE01A20F8E
S1130140B31F9C91DA019C938F5F282F30E0DE016E
S11301500D900020E9F71197AC1BBD0B2A173B0744
S113016050F3DF91CF91089590916B0280916A02D0
S1130170981769F0E92FF0E0E459FD4F80819F5F03
S11301801AF090936B02089510926B02089580E028
S11301900895ECE6F2E001900020E9F73197AF0111
S11301A04C565240ECE6F2E09A0124593D4F18C0F7
S11301B081918133A9F48081823391F481818333E5
S11301C079F48281843361F460E370E08CE692E038
S11301D007D110926A0210926B0281E090E00895B8
S11301E0E217F30729F780E090E00895CF93DF93B7
S11301F0EC01ECE6F2E001900020E9F73197AF0161
S11302004C56524060E370E08CE692E0E9D01092E4
S11302106A0210926B0286E692E084DFA5DF8B34DB
S1130220E9F7ECE6F2E001900020E9F73197AF013D
S11302304C56524060E370E08CE692E0D1D01092CC
S11302406A0210926B028BE592E06CDF8DDF8634DC
S1130250E9F7ECE6F2E001900020E9F73197AF010D
S11302604C56524060E370E08CE692E0B9D01092B4
S11302706A0210926B0283E492E054DF75DF8E33DE
S1130280E9F7ECE6F2E001900020E9F73197AF01DD
S11302904C56524060E370E08CE692E0A1D010929C
S11302A06A0210926B02CE013DDF84E392E03ADFF2
S11302B0DF91CF910895ECE6F2E001900020E9F798
S11302C03197AF014C56524060E370E08CE692E007
S11302D087D010926A0210926B0286E692E022DFC7
S11302E043DF8B34E9F7ECE6F2E001900020E9F714
S11302F03197AF014C56524060E370E08CE692E0D7
S11303006FD010926A0210926B028BE592E00ADFC2
S11303102BDF8634E9F7ECE6F2E001900020E9F700
S11303203197AF014C56524060E370E08CE692E0A6
S113033057D010926A0210926B0281E292E0F2DED0
S113034013DF8934E9F708951092C50087E6809396
S1130350C40088E98093C10086E08093C20080E8ED
S113036084B978942F9AA7DF87E392E03FDF2FEFD9
S113037081EE94E0215080409040E1F700C00000FD
S113038008DF892BA1F32F9880E092E02FDFEFCFD5
S11303901F920F920FB60F9211240BB60F928F93E8
S11303A09F93EF93FF93F89480916A029091C60013
S11303B0E82FF0E0E459FD4F90838F5F1AF08093AB
S11303C06A0202C010926A027894FF91EF919F91A1
S11303D08F910F900BBE0F900FBE0F901F9018952A
S11303E0DC0101C06D9341505040E0F70895F8944A
S10503F0FFCF39
S11303F2416C61726D2069732075697467657363FA
S113040268616B656C642C206D6565737465720D2F
S11304120041542B434E4D493D312C322C302C306B
S11304222C300D001A0D0054657374657274657373
S1130432740D0041542B434D47533D222B33323428
S11304423934303639323830220D0041542B434D81
S10D045247463D310D0041540D00F2
S9030000FC
