:1000000071C000008EC000008CC000008AC00000DB
:1000100088C0000086C0000084C0000082C00000CC
:1000200080C000007EC000007CC000007AC00000DC
:1000300078C0000076C0000074C0000072C00000EC
:1000400070C000006EC000006CC000006AC00000FC
:1000500068C0000066C0000064C0000062C000000C
:1000600060C00000D3C000005CC000005AC00000A7
:1000700058C0000056C0000054C0000052C000002C
:1000800050C000004EC000004CC000004AC000003C
:1000900048C0000046C0000044C0000042C000004C
:1000A00040C000003EC000003CC000003AC000005C
:1000B00038C0000036C0000034C0000032C000006C
:1000C00030C000002EC000002CC000002AC000007C
:1000D00028C0000026C0000024C0000022C000008C
:1000E00020C0000011241FBECFEFD1E2DEBFCDBF84
:1000F00000E00CBF12E0A0E0B2E0EEE6F2E000E0CB
:100100000BBF02C007900D92A830B107D9F722E0CB
:10011000A8E0B2E001C01D92AC32B207E1F75CD0BA
:10012000A4C06ECFCF93DF93F894A0E0B2E080E05C
:1001300090E0ED0146EC50E00AC02D91FA012083D9
:10014000EFE1FEE43197F1F700C000000196FE01F7
:1001500001900020E9F73197E050F2408E179F0799
:1001600060F37894DF91CF91089580E1ECE0F2E0C4
:10017000DF011D928A95E9F710920B0210920A0294
:10018000109209021092080288E0E0E0F2E0DF013C
:100190001D928A95E9F7089520910A0230910B0289
:1001A00080910802909109022817390799F0F90106
:1001B000E45FFD4F80812F5F3F4F203131052CF4EC
:1001C00030930B0220930A02089510920B021092B2
:1001D0000A02089580E008951092C50080E180939E
:1001E000C40088E98093C10086E08093C20080E863
:1001F00084B97894BADF06EC10E0C7E5CDDF8A3029
:10020000E9F7F801C0838EDFB0DFF8CF1F920F92BD
:100210000FB60F9211240BB60F922F938F939F93CB
:10022000EF93FF9380910802909109022091C600FC
:10023000FC01E45FFD4F20830196803191052CF491
:10024000909309028093080204C010920902109250
:100250000802FF91EF919F918F912F910F900BBE0C
:0E0260000F900FBE0F901F901895F894FFCFCF
:08026E0068616C6C6F6F770092
:00000001FF
