:1000000071C000008FC000008DC000008BC00000D8
:1000100089C0000087C0000085C0000083C00000C8
:1000200081C000007FC000007DC000007BC00000D8
:1000300079C0000077C0000075C0000073C00000E8
:1000400071C00000E3C500006DC000006BC000007F
:1000500069C0000067C0000065C0000063C0000008
:1000600061C00000EDC500005DC000005BC0000085
:1000700059C0000057C0000055C0000053C0000028
:1000800051C000004FC000004DC000004BC0000038
:100090001AC6000047C0000045C0000043C0000071
:1000A00041C000003FC000003DC000003BC0000058
:1000B00039C0000037C0000035C0000033C0000068
:1000C00031C000002FC000002DC000002BC0000078
:1000D00029C0000027C0000025C0000023C0000088
:1000E00021C0000011241FBECFEFD1E2DEBFCDBF83
:1000F00000E00CBF12E0A0E0B2E0EAE1F3E100E0D2
:100100000BBF02C007900D92A837B107D9F723E0C3
:10011000A8E7B2E001C01D92AB36B207E1F715D3F4
:100120000C948B096DCF789410928000E1E8F0E098
:10013000108280818860808383E294EF90938900AD
:100140008093880082E080936F0011B880EC84B9BE
:1001500095E597B985E080930A0112B898B9809324
:100160000B011092C50080E18093C40098E9909340
:10017000C1001092CD0027E62093CC009093C900D7
:1001800096E09093CA00E3E5F3E0DF011D928A95C3
:10019000E9F70895892B21F088B18A7A88B9089502
:1001A00088B1856588B90895892B31F0EBE0F1E0DD
:1001B00080818A7F80830895EBE0F1E08081856013
:1001C00080830895CF93DF93EC0180E0E8ECF0E0CA
:1001D0004EEC50E00AC0908195FFFDCFDE01A20FEA
:1001E000B31F9C91DA019C938F5F282F30E0DE01D2
:1001F0000D900020E9F71197AC1BBD0B2A173B07A8
:1002000050F3DF91CF9108959091A3028091A202C3
:10021000981769F0E92FF0E0ED53FD4F80819F5F63
:100220001AF09093A30208951092A302089580E01B
:100230000895CF93E3ECF2E001900020E9F73197C5
:10024000AF01435C5240EFE6F2E090816181728140
:10025000C381E3ECF2E09A012D533D4F18C0819128
:10026000891315C08081861312C0818187130FC046
:1002700082818C130CC060E370E083EC92E04BD57C
:100280001092A2021092A30281E090E005C0E21752
:10029000F30729F780E090E0CF9108950F931F9323
:1002A000CF93DF938C01E3ECF2E001900020E9F7BB
:1002B0003197AF01435C524060E370E083EC92E021
:1002C0002AD51092A2021092A3028BE692E07ADF66
:1002D000C5E6D0E099DF8B3441F08FE39CE90197CC
:1002E000F1F700C000002197A9F7E3ECF2E00190DC
:1002F0000020E9F73197AF01435C524060E370E0C2
:1003000083EC92E008D51092A2021092A30280E63C
:1003100092E058DFC5E6D0E077DF863441F08FE326
:100320009CE90197F1F700C000002197A9F7E3ECE1
:10033000F2E001900020E9F73197AF01435C5240B1
:1003400060E370E083EC92E0E6D41092A202109297
:10035000A30288E492E036DFC5E6D0E055DF8E33B5
:1003600011F02197D9F7E3ECF2E001900020E9F7D2
:100370003197AF01435C524060E370E083EC92E060
:10038000CAD41092A2021092A302C8011BDF86E316
:1003900092E018DFDF91CF911F910F910895CF93D5
:1003A000DF93E3ECF2E001900020E9F73197AF0131
:1003B000435C524060E370E083EC92E0ACD4109276
:1003C000A2021092A3028BE692E0FCDEC5E6D0E02A
:1003D0001BDF8B3441F08FE39CE90197F1F700C0FC
:1003E00000002197A9F7E3ECF2E001900020E9F783
:1003F0003197AF01435C524060E370E083EC92E0E0
:100400008AD41092A2021092A30280E692E0DADE71
:10041000C0E0D0E0F9DE863459F08FE39CE9019723
:10042000F1F700C00000C436D10511F02196F2CFDB
:10043000E3ECF2E001900020E9F73197AF01435C73
:10044000524060E370E083EC92E065D41092A20227
:100450001092A30283E292E0B5DED6DE893459F031
:100460008FE39CE90197F1F700C00000C436D10585
:1004700014F42196F2CFDF91CF910895892B09F1E1
:100480002F9A81E090E086DE81E090E08DDE81E0D1
:1004900090E090939902809398021092A10210929A
:1004A000A00280917E0290917F02892B41F589E321
:1004B00092E0F4DE81E090E090937F0280937E02F0
:1004C00008952F9880E090E065DE80E090E06CDE9B
:1004D000109299021092980210927F0210927E025E
:1004E0008091A0029091A102892B49F482E092E0D0
:1004F000D5DE81E090E09093A1028093A002089560
:10050000892B39F081E090E0909301028093000202
:100510000895109201021092000210929902109216
:10052000980280E090E0AACF0895E3E5F3E001901F
:100530000020E9F73197AF014355534060E070E088
:1005400083E593E0E8D310927B0210927A02109236
:100550007D0210927C020895E4E9F2E0A4E8B2E0A2
:1005600021E030E080E090E072916291269FA0014E
:10057000279F500D369F500D1124840F951F220F79
:10058000331FEA17FB0781F70895CF93DF93EC0140
:10059000E3DF80936303909364039F938F9384E7D7
:1005A00092E09F938F931F9286E08F9385E693E06E
:1005B0009F938F93C7D384E288838EE489838DB71A
:1005C0009EB708960FB6F8949EBF0FBE8DBF809160
:1005D0009802909199020197B1F481E48A838B8308
:1005E00080916303909164030A9734F480E38C83D1
:1005F000809165038D8323C0E5E6F3E080818C83E1
:1006000081818D831CC085E58A8383E58B838091FE
:10061000630390916403009721F480E38C838D83BE
:100620000EC00A9734F480E38C83809165038D8338
:1006300006C0E5E6F3E080818C8381818D8383E2CF
:100640008E838AE08F83CE01DF91CF910895CF937F
:10065000DF93DC0180E0C6ECD0E00CC0FD01E20FCE
:10066000F31F90819883EFE1FEE43197F1F700C02A
:1006700000008F5F282F30E0FD0101900020E9F796
:100680003197EA1BFB0B2E173F0740F38091C00008
:1006900085FD1092C600DF91CF91089546DF88EA6C
:1006A00092E073DF2E9AF89488EA92E0D0DF2E98D9
:1006B00078940895CF93DF9363E473E087EB92E03F
:1006C0003AD3E4EAF2E06081518142819381E3E42C
:1006D000F3E0A9EBB2E023E533E08191843241F508
:1006E00080818D3439F0E4EAF2E060835183428303
:1006F000938328C08181833439F0E4EAF2E0608397
:100700005183428393831EC08281843439F0E4EAAA
:10071000F2E0608351834283938314C06C911196FD
:100720005C91119712964C91129713969C91139786
:100730001196E217F30789F6E4EAF2E06083518349
:1007400042839383DF91CF910895CF93DF93CDB709
:10075000DEB7C955D1090FB6F894DEBF0FBECDBFC5
:10076000E2DC1DDEE4EAF2E001900020E9F73197D7
:10077000AF01445A524060E070E084EA92E0CBD28C
:1007800080E1E3E5F3E0DF011D928A95E9F7FE01E0
:10079000B5966796FFAFEEAF6797B4971382128254
:1007A000158214821782168211861086138612868D
:1007B0003C9667968EAD9FAD67978E179F0771F732
:1007C0001A82198221E030E03C832B8382E090E0A2
:1007D0009E838D8343E050E058874F833E872D876B
:1007E00024E030E0388B2F8725E030E03A8B298BEE
:1007F00026E030E03C8B2B8B9A8F898F87E090E04E
:100800009C8F8B8F88E090E09E8F8D8F8CE0FE0117
:100810003196DE01959601900D928A95E1F78CE074
:10082000FE013D96DE01D19601900D928A95E1F789
:100830008CE0FE013D96DE01DD9601900D928A95D9
:10084000E1F78CE0FE017996DE01A75BBF4F0190D6
:100850000D928A95E1F7E12CF12C812C912C0F2E31
:10086000F3E02F2E312CF02D02E812E0CC24C394BB
:10087000D12CA12CB12C0F2EF9E04F2E55245394DE
:10088000F02D0F2EF1E86F2E712CF02D6896CFAE63
:1008900068976996DFAE699780B12C2D9D2D382F12
:1008A000317080FF02C02A2D9B2DD80112962C9307
:1008B000129713969C9380B12C2D9D2D482F447038
:1008C00082FF02C02A2D9B2DF8012483958380B1DD
:1008D0002C2D9D2D582F507184FF02C02A2D9B2D49
:1008E000D80116962C93169717969C9380B12C2DB1
:1008F0009D2D682F607486FF02C02A2D9B2DF80164
:100900002087918726B1822F022E000C990B8095AB
:100910009095892F881F8827881F8287138686B124
:10092000EC2D9D2D782F707285FF02C0EA2D9B2D36
:10093000D8011C96EC931C971D969C9386B1FC2DB8
:100940009D2DE82FE87083FF02C0FA2D9B2DD80162
:100950001E96FC931E971F969C9386B16A96CFAE07
:100960006A979D2DF82FF27081FF04C06A96AFAE92
:100970006A979B2D6A968FAD6A97D80150968C9393
:10098000509751969C93D2018C9186958695869529
:10099000B1E08B2781708093940210929502D2016E
:1009A0008C91827090E0909397028093960233230B
:1009B00071F0442361F0552351F0662341F0222366
:1009C00034F4772321F0EE2311F0F1116CC0809103
:1009D000000290910102892B09F40BC180918002E1
:1009E00090918102019709F05AC022C0880F991F87
:1009F0008E579D4FDC018D919C91892B21F04701F1
:100A0000DA01ED90FC9081919191009779F7245F44
:100A10003F4F6796EEADFFAD6797E217F30759F4C6
:100A2000FE01B596AF01405D5F4F6A2D7B2D1EC064
:100A30009E012F5F3F4FD90112968D919C91139784
:100A4000009729F3F9013496A901D0CF281539056B
:100A500009F40196029731F468966FAD689769962C
:100A60007FAD699778964E175F0761F0DF0180814F
:100A700091818E159F0509F4AEC08815990509F07E
:100A8000A7C0ACC08E149F0409F49CC061307105EE
:100A900009F499C0D3018C9184608C9304C0F30154
:100AA0008081846080838091A702882309F43CC000
:100AB0008091000290910102892B09F444C064EAFC
:100AC00072E08FE692E02ED1892B91F48A2D9B2D36
:100AD00017DDE4EAF2E001900020E9F73197AF0179
:100AE000445A52406A2D7B2D84EA92E014D111C001
:100AF000E4EAF2E001900020E9F73197AF01445AAF
:100B000052406A2D7B2D84EA92E005D1F1E02F1A44
:100B100031082114310441F48C2D9D2DAFDC0F2EB2
:100B2000F3E02F2E312CF02D8091940290919502BC
:100B3000892B49F08091000290910102892B19F0D4
:100B40008C2D9D2D9BDC80919E0290919F020F9792
:100B500079F4D3018C91887F8C93E4E8F0E01182E2
:100B600010828C2D9D2D8ADCA0929E02B0929F0255
:100B700080919A0290919B02A0919C02B0919D025B
:100B80000196A11DB11D80939A0290939B02A093A0
:100B90009C02B0939D0280339547A105B10509F0F1
:100BA0007BCE10929A0210929B0210929C0210929D
:100BB0009D0274DD3EDB892B09F46ECE8A2D9B2DC0
:100BC0009FDC6ACE47018091A7028823B9F077CFD6
:100BD00080E090E005C081E090E002C081E090E01C
:100BE0001C962D913C911D972E153F0509F02ECF97
:100BF00030CF8091A7028111A6CF96CF8091940229
:100C000090919502892B09F49ECF9ACF1F920F9253
:100C10000FB60F9211248F939F9380919E02909113
:100C20009F02019690939F0280939E0285B1805807
:100C300085B99F918F910F900FBE0F901F901895BF
:100C40001F920F920FB60F9211240BB60F922F9393
:100C50003F934F935F936F937F938F939F93AF9344
:100C6000BF93EF93FF938091C600E0917802F091DB
:100C70007902ED5BFC4F80838A3009F41BDD8091A3
:100C80007802909179020196803191052CF490932D
:100C900079028093780204C010927902109278024F
:100CA000FF91EF91BF91AF919F918F917F916F9144
:100CB0005F914F913F912F910F900BBE0F900FBE00
:100CC0000F901F9018951F920F920FB60F9211243C
:100CD0000BB60F928F939F93EF93FF93F8948091AD
:100CE000A2029091CE00E82FF0E0ED53FD4F9083EB
:100CF0008F5F1AF08093A20202C01092A202789431
:100D0000FF91EF919F918F910F900BBE0F900FBEAF
:100D10000F901F901895DC0101C06D934150504019
:100D2000E0F70895FB01DC018D910190801901101D
:100D3000D9F3990B0895FB01DC0101900D9200207D
:100D4000E1F708950F931F93CF93DF93CDB7DEB7ED
:100D50002E970FB6F894DEBF0FBECDBF0E891F8948
:100D6000888D998D26E02C831A83098397FF02C012
:100D700080E090E801979E838D83AE01445E5F4FD3
:100D80006A8D7B8DCE01019619D04D815E8157FD14
:100D90000AC02F813885421753070CF49A01F801D5
:100DA000E20FF31F10822E960FB6F894DEBF0FBE2F
:100DB000CDBFDF91CF911F910F9108952F923F9258
:100DC0004F925F926F927F928F929F92AF92BF925B
:100DD000CF92DF92EF92FF920F931F93CF93DF9307
:100DE000CDB7DEB72B970FB6F894DEBF0FBECDBFE1
:100DF0006C017B018A01FC0117821682838181FFCD
:100E0000BFC1CE0101963C01F6019381F70193FD2C
:100E1000859193FF81917F01882309F4ADC18532CB
:100E200039F493FD859193FF81917F01853221F4FF
:100E3000B60190E0D6D1E8CF912C212C312CFFE1E6
:100E4000F315D8F08B3279F038F4803279F08332B0
:100E5000A1F4232D20611DC08D3261F0803369F42F
:100E6000232D216016C0832D8260382EE32DE4608F
:100E70003E2E2AC0F32DF8601DC037FC2DC020ED9A
:100E8000280F2A3040F08E32B9F436FC75C1232D7C
:100E90002064322E19C036FE06C08AE0989E200DCE
:100EA0001124922E11C0EAE02E9E200D1124222E34
:100EB000F32DF0623F2E08C08C3621F4832D80681C
:100EC000382E02C0883641F4F70193FD859193FFD7
:100ED00081917F018111B3CF982F9F7D95549330DD
:100EE00028F40C5F1F4F9FE399830DC0833631F0C8
:100EF000833771F0833509F055C020C0F801808137
:100F000089830E5F1F4F88248394912C530112C054
:100F10002801F2E04F0E511CF801A080B18036FE8E
:100F200003C0692D70E002C06FEF7FEFC5014ED1A5
:100F30004C018201F32DFF773F2E15C0280122E0DE
:100F4000420E511CF801A080B18036FE03C0692D0D
:100F500070E002C06FEF7FEFC5012DD14C01F32D82
:100F6000F0683F2E820133FC19C0822D90E0881674
:100F70009906A0F4B60180E290E033D12A94F5CF2F
:100F8000F50137FC859137FE81915F01B60190E054
:100F900028D121102A9421E0821A91088114910409
:100FA00079F7E1C0843611F0893639F5F80137FE5A
:100FB00007C060817181828193810C5F1F4F08C0DF
:100FC00060817181072E000C880B990B0E5F1F4FFB
:100FD000F32DFF763F2E97FF09C090958095709571
:100FE00061957F4F8F4F9F4FF0683F2E2AE030E092
:100FF000A30133D1882E861844C0853731F4232DC0
:101000002F7EB22E2AE030E025C0932D997FB92E95
:101010008F36C1F018F4883579F0AEC0803719F0FA
:10102000883721F0A9C0E92FE061BE2EB4FE0DC0C3
:10103000FB2DF460BF2E09C034FE0AC0292F2660A4
:10104000B22E06C028E030E005C020E130E002C04A
:1010500020E132E0F801B7FE07C060817181828132
:1010600093810C5F1F4F06C06081718180E090E02A
:101070000E5F1F4FA301F1D0882E8618FB2DFF773E
:101080003F2E36FE0DC0232D2E7FA22E891458F43C
:1010900034FE0BC032FC09C0832D8E7EA82E05C005
:1010A000B82CA32C03C0B82C01C0B92CA4FE0FC0CF
:1010B000FE01E80DF11D8081803321F49A2D997E87
:1010C000A92E09C0A2FE06C0B394B39404C08A2D11
:1010D000867809F0B394A3FC10C0A0FE06C0B21439
:1010E00080F4280C922C9B180DC0B21458F4B60151
:1010F00080E290E076D0B394F8CFB21418F42B18B5
:1011000002C0982C212CA4FE0FC0B60180E390E011
:1011100068D0A2FE16C0A1FC03C088E790E002C020
:1011200088E590E0B6010CC08A2D867851F0A1FECA
:1011300002C08BE201C080E2A7FC8DE2B60190E024
:1011400050D0891430F4B60180E390E04AD09A94EC
:10115000F8CF8A94F301E80DF11D8081B60190E08B
:1011600040D08110F6CF222009F44ECEB60180E2A5
:1011700090E037D02A94F7CFF6018681978102C09C
:101180008FEF9FEF2B960FB6F894DEBF0FBECDBF4B
:10119000DF91CF911F910F91FF90EF90DF90CF9053
:1011A000BF90AF909F908F907F906F905F904F9087
:1011B0003F902F900895FC01059061507040011000
:1011C000D8F7809590958E0F9F1F0895FC01615070
:1011D000704001900110D8F7809590958E0F9F1F59
:1011E00008950F931F93CF93DF93FB01238121FD7C
:1011F00003C08FEF9FEF2CC022FF16C0468157819E
:10120000248135814217530744F4A081B1819D01A7
:101210002F5F3F4F318320838C93268137812F5F4F
:101220003F4F3783268314C08B01EC01FB01008400
:10123000F185E02D1995892BE1F6D80116968D914F
:101240009C911797019617969C938E931697CE01B3
:10125000DF91CF911F910F910895FA01AA272830AD
:1012600051F1203181F1E8946F936E7F6E5F7F4F73
:101270008F4F9F4FAF4FB1E03ED0B4E03CD0670FEF
:10128000781F891F9A1FA11D680F791F8A1F911D42
:10129000A11D6A0F711D811D911DA11D20D009F492
:1012A00068943F912AE0269F11243019305D3193D4
:1012B000DEF6CF010895462F4770405D4193B3E0BD
:1012C0000FD0C9F7F6CF462F4F70405D4A3318F064
:1012D000495D31FD4052419302D0A9F7EACFB4E015
:1012E000A6959795879577956795BA95C9F70097CD
:1012F0006105710508959B01AC010A2E069457956E
:10130000479537952795BA95C9F7620F731F841FC4
:0A131000951FA01D0895F894FFCF6B
:10131A000100416C61726D2069732075697467659B
:10132A00736368616B656C642C206D6565737465A5
:10133A00720D0041542B434E4D493D312C322C3015
:10134A002C302C300D001A0D00416C61726D206733
:10135A006161742061660D0041542B434D47533D32
:10136A00222B3332343934303639323830220D00B8
:10137A0041542B434D47463D310D0041540D003138
:08138A00323334002564000039
:00000001FF
